{
  "address": "0xe7f1725E7734CE288F8367e1Bb143E90bb3F0512",
  "abi": [
    {
      "inputs": [
        {
          "internalType": "address",
          "name": "priceFeedAddress",
          "type": "address"
        }
      ],
      "stateMutability": "nonpayable",
      "type": "constructor"
    },
    {
      "inputs": [],
      "name": "FundMe__NotOwner",
      "type": "error"
    },
    {
      "anonymous": false,
      "inputs": [
        {
          "indexed": false,
          "internalType": "uint256",
          "name": "gas",
          "type": "uint256"
        }
      ],
      "name": "Log",
      "type": "event"
    },
    {
      "stateMutability": "payable",
      "type": "fallback"
    },
    {
      "inputs": [],
      "name": "MINIMUM_USD",
      "outputs": [
        {
          "internalType": "uint256",
          "name": "",
          "type": "uint256"
        }
      ],
      "stateMutability": "view",
      "type": "function"
    },
    {
      "inputs": [
        {
          "internalType": "address",
          "name": "",
          "type": "address"
        }
      ],
      "name": "addressToAmountFunded",
      "outputs": [
        {
          "internalType": "uint256",
          "name": "",
          "type": "uint256"
        }
      ],
      "stateMutability": "view",
      "type": "function"
    },
    {
      "inputs": [],
      "name": "fund",
      "outputs": [],
      "stateMutability": "payable",
      "type": "function"
    },
    {
      "inputs": [
        {
          "internalType": "uint256",
          "name": "",
          "type": "uint256"
        }
      ],
      "name": "funders",
      "outputs": [
        {
          "internalType": "address",
          "name": "",
          "type": "address"
        }
      ],
      "stateMutability": "view",
      "type": "function"
    },
    {
      "inputs": [],
      "name": "i_owner",
      "outputs": [
        {
          "internalType": "address",
          "name": "",
          "type": "address"
        }
      ],
      "stateMutability": "view",
      "type": "function"
    },
    {
      "inputs": [],
      "name": "priceFeed",
      "outputs": [
        {
          "internalType": "contract AggregatorV3Interface",
          "name": "",
          "type": "address"
        }
      ],
      "stateMutability": "view",
      "type": "function"
    },
    {
      "inputs": [],
      "name": "withdraw",
      "outputs": [],
      "stateMutability": "nonpayable",
      "type": "function"
    },
    {
      "stateMutability": "payable",
      "type": "receive"
    }
  ],
  "transactionHash": "0xb48dfe7a3d4841f0c73ac6df7edca8de0a3b335f938d4d52862dd98cc2df884b",
  "args": [
    "0x5FbDB2315678afecb367f032d93F642f64180aa3"
  ],
  "numDeployments": 1,
  "solcInputHash": "642056e968d73f28b06dfe2f3791aeed",
  "bytecode": "0x60a060405234801561001057600080fd5b50604051620010453803806200104583398181016040528101906100349190610115565b3373ffffffffffffffffffffffffffffffffffffffff1660808173ffffffffffffffffffffffffffffffffffffffff1660601b8152505080600260006101000a81548173ffffffffffffffffffffffffffffffffffffffff021916908373ffffffffffffffffffffffffffffffffffffffff16021790555050610142565b600080fd5b600073ffffffffffffffffffffffffffffffffffffffff82169050919050565b60006100e2826100b7565b9050919050565b6100f2816100d7565b81146100fd57600080fd5b50565b60008151905061010f816100e9565b92915050565b60006020828403121561012b5761012a6100b2565b5b600061013984828501610100565b91505092915050565b60805160601c610edd620001686000396000818161020901526105ce0152610edd6000f3fe6080604052600436106100745760003560e01c8063741bef1a1161004e578063741bef1a1461016a578063b60d428814610195578063dba6335f1461019f578063dc0d3dff146101ca576100b2565b80633ccfd60b146100eb5780633e47d6f3146101025780636b69a5921461013f576100b2565b366100b2577f909c57d5c6ac08245cf2a6de3900e2b868513fa59099b92b27d8db823d92df9c5a6040516100a891906107cb565b60405180910390a1005b7f909c57d5c6ac08245cf2a6de3900e2b868513fa59099b92b27d8db823d92df9c5a6040516100e191906107cb565b60405180910390a1005b3480156100f757600080fd5b50610100610207565b005b34801561010e57600080fd5b5061012960048036038101906101249190610849565b610447565b60405161013691906107cb565b60405180910390f35b34801561014b57600080fd5b5061015461045f565b60405161016191906107cb565b60405180910390f35b34801561017657600080fd5b5061017f61046c565b60405161018c91906108d5565b60405180910390f35b61019d610492565b005b3480156101ab57600080fd5b506101b46105cc565b6040516101c191906108ff565b60405180910390f35b3480156101d657600080fd5b506101f160048036038101906101ec9190610946565b6105f0565b6040516101fe91906108ff565b60405180910390f35b7f000000000000000000000000000000000000000000000000000000000000000073ffffffffffffffffffffffffffffffffffffffff163373ffffffffffffffffffffffffffffffffffffffff161461028c576040517f579610db00000000000000000000000000000000000000000000000000000000815260040160405180910390fd5b60005b600180549050811015610337576000600182815481106102b2576102b1610973565b5b9060005260206000200160009054906101000a900473ffffffffffffffffffffffffffffffffffffffff16905060008060008373ffffffffffffffffffffffffffffffffffffffff1673ffffffffffffffffffffffffffffffffffffffff1681526020019081526020016000208190555050808061032f906109d1565b91505061028f565b50600067ffffffffffffffff81111561035357610352610a1a565b5b6040519080825280602002602001820160405280156103815781602001602082028036833780820191505090505b506001908051906020019061039792919061070b565b5060003373ffffffffffffffffffffffffffffffffffffffff16476040516103be90610a7a565b60006040518083038185875af1925050503d80600081146103fb576040519150601f19603f3d011682016040523d82523d6000602084013e610400565b606091505b5050905080610444576040517f08c379a000000000000000000000000000000000000000000000000000000000815260040161043b90610aec565b60405180910390fd5b50565b60006020528060005260406000206000915090505481565b6802b5e3af16b188000081565b600260009054906101000a900473ffffffffffffffffffffffffffffffffffffffff1681565b6802b5e3af16b18800006104d1600260009054906101000a900473ffffffffffffffffffffffffffffffffffffffff163461062f90919063ffffffff16565b1015610512576040517f08c379a000000000000000000000000000000000000000000000000000000000815260040161050990610b58565b60405180910390fd5b346000803373ffffffffffffffffffffffffffffffffffffffff1673ffffffffffffffffffffffffffffffffffffffff16815260200190815260200160002060008282546105609190610b78565b925050819055506001339080600181540180825580915050600190039060005260206000200160009091909190916101000a81548173ffffffffffffffffffffffffffffffffffffffff021916908373ffffffffffffffffffffffffffffffffffffffff160217905550565b7f000000000000000000000000000000000000000000000000000000000000000081565b6001818154811061060057600080fd5b906000526020600020016000915054906101000a900473ffffffffffffffffffffffffffffffffffffffff1681565b60008061063b8361066b565b90506000670de0b6b3a764000085836106549190610bce565b61065e9190610c57565b9050809250505092915050565b6000808273ffffffffffffffffffffffffffffffffffffffff1663feaf968c6040518163ffffffff1660e01b815260040160a06040518083038186803b1580156106b457600080fd5b505afa1580156106c8573d6000803e3d6000fd5b505050506040513d601f19601f820116820180604052508101906106ec9190610d15565b5050509150506402540be400816107039190610d90565b915050919050565b828054828255906000526020600020908101928215610784579160200282015b828111156107835782518260006101000a81548173ffffffffffffffffffffffffffffffffffffffff021916908373ffffffffffffffffffffffffffffffffffffffff1602179055509160200191906001019061072b565b5b5090506107919190610795565b5090565b5b808211156107ae576000816000905550600101610796565b5090565b6000819050919050565b6107c5816107b2565b82525050565b60006020820190506107e060008301846107bc565b92915050565b600080fd5b600073ffffffffffffffffffffffffffffffffffffffff82169050919050565b6000610816826107eb565b9050919050565b6108268161080b565b811461083157600080fd5b50565b6000813590506108438161081d565b92915050565b60006020828403121561085f5761085e6107e6565b5b600061086d84828501610834565b91505092915050565b6000819050919050565b600061089b610896610891846107eb565b610876565b6107eb565b9050919050565b60006108ad82610880565b9050919050565b60006108bf826108a2565b9050919050565b6108cf816108b4565b82525050565b60006020820190506108ea60008301846108c6565b92915050565b6108f98161080b565b82525050565b600060208201905061091460008301846108f0565b92915050565b610923816107b2565b811461092e57600080fd5b50565b6000813590506109408161091a565b92915050565b60006020828403121561095c5761095b6107e6565b5b600061096a84828501610931565b91505092915050565b7f4e487b7100000000000000000000000000000000000000000000000000000000600052603260045260246000fd5b7f4e487b7100000000000000000000000000000000000000000000000000000000600052601160045260246000fd5b60006109dc826107b2565b91507fffffffffffffffffffffffffffffffffffffffffffffffffffffffffffffffff821415610a0f57610a0e6109a2565b5b600182019050919050565b7f4e487b7100000000000000000000000000000000000000000000000000000000600052604160045260246000fd5b600081905092915050565b50565b6000610a64600083610a49565b9150610a6f82610a54565b600082019050919050565b6000610a8582610a57565b9150819050919050565b600082825260208201905092915050565b7f43616c6c206661696c6564000000000000000000000000000000000000000000600082015250565b6000610ad6600b83610a8f565b9150610ae182610aa0565b602082019050919050565b60006020820190508181036000830152610b0581610ac9565b9050919050565b7f596f75206e65656420746f207370656e64206d6f726520455448210000000000600082015250565b6000610b42601b83610a8f565b9150610b4d82610b0c565b602082019050919050565b60006020820190508181036000830152610b7181610b35565b9050919050565b6000610b83826107b2565b9150610b8e836107b2565b9250827fffffffffffffffffffffffffffffffffffffffffffffffffffffffffffffffff03821115610bc357610bc26109a2565b5b828201905092915050565b6000610bd9826107b2565b9150610be4836107b2565b9250817fffffffffffffffffffffffffffffffffffffffffffffffffffffffffffffffff0483118215151615610c1d57610c1c6109a2565b5b828202905092915050565b7f4e487b7100000000000000000000000000000000000000000000000000000000600052601260045260246000fd5b6000610c62826107b2565b9150610c6d836107b2565b925082610c7d57610c7c610c28565b5b828204905092915050565b600069ffffffffffffffffffff82169050919050565b610ca781610c88565b8114610cb257600080fd5b50565b600081519050610cc481610c9e565b92915050565b6000819050919050565b610cdd81610cca565b8114610ce857600080fd5b50565b600081519050610cfa81610cd4565b92915050565b600081519050610d0f8161091a565b92915050565b600080600080600060a08688031215610d3157610d306107e6565b5b6000610d3f88828901610cb5565b9550506020610d5088828901610ceb565b9450506040610d6188828901610d00565b9350506060610d7288828901610d00565b9250506080610d8388828901610cb5565b9150509295509295909350565b6000610d9b82610cca565b9150610da683610cca565b9250827f7fffffffffffffffffffffffffffffffffffffffffffffffffffffffffffffff0482116000841360008413161615610de557610de46109a2565b5b817f80000000000000000000000000000000000000000000000000000000000000000583126000841260008413161615610e2257610e216109a2565b5b827f80000000000000000000000000000000000000000000000000000000000000000582126000841360008412161615610e5f57610e5e6109a2565b5b827f7fffffffffffffffffffffffffffffffffffffffffffffffffffffffffffffff0582126000841260008412161615610e9c57610e9b6109a2565b5b82820290509291505056fea264697066735822122058db7ae71ef2e211fc205203e59cede81e8599d5740777a1ae9ae93f8d873e7164736f6c63430008080033",
  "devdoc": {
    "author": "Selim Ellieh",
    "details": "This implements price feeds as our library",
    "kind": "dev",
    "methods": {
      "fund()": {
        "details": "This implements price feeds as our library"
      }
    },
    "title": "A contract for crowd funding",
    "version": 1
  },
  "userdoc": {
    "kind": "user",
    "methods": {
      "fund()": {
        "notice": "This function funds this contract"
      }
    },
    "notice": "This contract is to demo a sample funding contract",
    "version": 1
  },
  "storageLayout": {
    "storage": [
      {
        "astId": 59,
        "contract": "contracts/FundMe.sol:FundMe",
        "label": "addressToAmountFunded",
        "offset": 0,
        "slot": "0",
        "type": "t_mapping(t_address,t_uint256)"
      },
      {
        "astId": 62,
        "contract": "contracts/FundMe.sol:FundMe",
        "label": "funders",
        "offset": 0,
        "slot": "1",
        "type": "t_array(t_address)dyn_storage"
      },
      {
        "astId": 74,
        "contract": "contracts/FundMe.sol:FundMe",
        "label": "priceFeed",
        "offset": 0,
        "slot": "2",
        "type": "t_contract(AggregatorV3Interface)45"
      }
    ],
    "types": {
      "t_address": {
        "encoding": "inplace",
        "label": "address",
        "numberOfBytes": "20"
      },
      "t_array(t_address)dyn_storage": {
        "base": "t_address",
        "encoding": "dynamic_array",
        "label": "address[]",
        "numberOfBytes": "32"
      },
      "t_contract(AggregatorV3Interface)45": {
        "encoding": "inplace",
        "label": "contract AggregatorV3Interface",
        "numberOfBytes": "20"
      },
      "t_mapping(t_address,t_uint256)": {
        "encoding": "mapping",
        "key": "t_address",
        "label": "mapping(address => uint256)",
        "numberOfBytes": "32",
        "value": "t_uint256"
      },
      "t_uint256": {
        "encoding": "inplace",
        "label": "uint256",
        "numberOfBytes": "32"
      }
    }
  }
}